{
  "contractName": "Crowd_Funding",
  "abi": [
    {
      "anonymous": false,
      "inputs": [
        {
          "indexed": true,
          "internalType": "uint256",
          "name": "postId",
          "type": "uint256"
        },
        {
          "indexed": true,
          "internalType": "address",
          "name": "creator",
          "type": "address"
        },
        {
          "indexed": false,
          "internalType": "uint256",
          "name": "collectedAmount",
          "type": "uint256"
        }
      ],
      "name": "FundsCollected",
      "type": "event"
    },
    {
      "anonymous": false,
      "inputs": [
        {
          "indexed": true,
          "internalType": "uint256",
          "name": "postId",
          "type": "uint256"
        },
        {
          "indexed": true,
          "internalType": "address",
          "name": "creator",
          "type": "address"
        },
        {
          "indexed": false,
          "internalType": "uint256",
          "name": "goalAmount",
          "type": "uint256"
        },
        {
          "indexed": false,
          "internalType": "uint256",
          "name": "minContribution",
          "type": "uint256"
        },
        {
          "indexed": false,
          "internalType": "uint256",
          "name": "deadline",
          "type": "uint256"
        }
      ],
      "name": "PostCreated",
      "type": "event"
    },
    {
      "anonymous": false,
      "inputs": [
        {
          "indexed": true,
          "internalType": "uint256",
          "name": "postId",
          "type": "uint256"
        }
      ],
      "name": "PostRemoved",
      "type": "event"
    },
    {
      "anonymous": false,
      "inputs": [
        {
          "indexed": true,
          "internalType": "uint256",
          "name": "postId",
          "type": "uint256"
        },
        {
          "indexed": true,
          "internalType": "address",
          "name": "contributor",
          "type": "address"
        },
        {
          "indexed": false,
          "internalType": "uint256",
          "name": "amount",
          "type": "uint256"
        }
      ],
      "name": "RefundIssued",
      "type": "event"
    },
    {
      "inputs": [],
      "name": "postCount",
      "outputs": [
        {
          "internalType": "uint256",
          "name": "",
          "type": "uint256"
        }
      ],
      "stateMutability": "view",
      "type": "function",
      "constant": true
    },
    {
      "inputs": [
        {
          "internalType": "uint256",
          "name": "",
          "type": "uint256"
        }
      ],
      "name": "posts",
      "outputs": [
        {
          "internalType": "address payable",
          "name": "creator",
          "type": "address"
        },
        {
          "internalType": "uint256",
          "name": "goalAmount",
          "type": "uint256"
        },
        {
          "internalType": "uint256",
          "name": "deadline",
          "type": "uint256"
        },
        {
          "internalType": "uint256",
          "name": "collectedAmount",
          "type": "uint256"
        },
        {
          "internalType": "uint256",
          "name": "minContribution",
          "type": "uint256"
        },
        {
          "internalType": "bool",
          "name": "active",
          "type": "bool"
        }
      ],
      "stateMutability": "view",
      "type": "function",
      "constant": true
    },
    {
      "inputs": [
        {
          "internalType": "uint256",
          "name": "_goalAmount",
          "type": "uint256"
        },
        {
          "internalType": "uint256",
          "name": "_minContribution",
          "type": "uint256"
        }
      ],
      "name": "createPost",
      "outputs": [],
      "stateMutability": "nonpayable",
      "type": "function"
    },
    {
      "inputs": [
        {
          "internalType": "uint256",
          "name": "_postId",
          "type": "uint256"
        }
      ],
      "name": "fundPost",
      "outputs": [],
      "stateMutability": "payable",
      "type": "function",
      "payable": true
    },
    {
      "inputs": [
        {
          "internalType": "uint256",
          "name": "_postId",
          "type": "uint256"
        }
      ],
      "name": "checkDeadline",
      "outputs": [],
      "stateMutability": "nonpayable",
      "type": "function"
    },
    {
      "inputs": [
        {
          "internalType": "uint256",
          "name": "_postId",
          "type": "uint256"
        }
      ],
      "name": "claimRefund",
      "outputs": [],
      "stateMutability": "nonpayable",
      "type": "function"
    },
    {
      "inputs": [
        {
          "internalType": "uint256",
          "name": "_postId",
          "type": "uint256"
        }
      ],
      "name": "getRemainingTime",
      "outputs": [
        {
          "internalType": "uint256",
          "name": "",
          "type": "uint256"
        }
      ],
      "stateMutability": "view",
      "type": "function",
      "constant": true
    },
    {
      "inputs": [
        {
          "internalType": "uint256",
          "name": "_postId",
          "type": "uint256"
        }
      ],
      "name": "getCollectedFunds",
      "outputs": [
        {
          "internalType": "uint256",
          "name": "",
          "type": "uint256"
        }
      ],
      "stateMutability": "view",
      "type": "function",
      "constant": true
    },
    {
      "inputs": [
        {
          "internalType": "uint256",
          "name": "_postId",
          "type": "uint256"
        }
      ],
      "name": "getPost",
      "outputs": [
        {
          "internalType": "address",
          "name": "creator",
          "type": "address"
        },
        {
          "internalType": "uint256",
          "name": "goalAmount",
          "type": "uint256"
        },
        {
          "internalType": "uint256",
          "name": "deadline",
          "type": "uint256"
        },
        {
          "internalType": "uint256",
          "name": "collectedAmount",
          "type": "uint256"
        },
        {
          "internalType": "uint256",
          "name": "minContribution",
          "type": "uint256"
        },
        {
          "internalType": "bool",
          "name": "active",
          "type": "bool"
        }
      ],
      "stateMutability": "view",
      "type": "function",
      "constant": true
    },
    {
      "inputs": [],
      "name": "getPostIds",
      "outputs": [
        {
          "internalType": "uint256[]",
          "name": "",
          "type": "uint256[]"
        }
      ],
      "stateMutability": "view",
      "type": "function",
      "constant": true
    }
  ],
  "bytecode": "0x608060405234801561001057600080fd5b5061198c806100206000396000f3fe6080604052600436106100915760003560e01c80635b7baf64116100595780635b7baf64146101ad5780636bfd1327146101d6578063a6990946146101f2578063bf592dd91461021b578063fb598f871461025857610091565b80630b1e7f831461009657806317906c2e146100d8578063181e01241461010357806340731c241461014057806359b6629b14610182575b600080fd5b3480156100a257600080fd5b506100bd60048036038101906100b891906110f9565b610281565b6040516100cf96959493929190611543565b60405180910390f35b3480156100e457600080fd5b506100ed6102ea565b6040516100fa9190611747565b60405180910390f35b34801561010f57600080fd5b5061012a600480360381019061012591906110f9565b6102f0565b6040516101379190611747565b60405180910390f35b34801561014c57600080fd5b50610167600480360381019061016291906110f9565b610335565b604051610179969594939291906115a4565b60405180910390f35b34801561018e57600080fd5b506101976103b5565b6040516101a49190611605565b60405180910390f35b3480156101b957600080fd5b506101d460048036038101906101cf91906110f9565b610513565b005b6101f060048036038101906101eb91906110f9565b610789565b005b3480156101fe57600080fd5b50610219600480360381019061021491906110f9565b610a6c565b005b34801561022757600080fd5b50610242600480360381019061023d91906110f9565b610c5b565b60405161024f9190611747565b60405180910390f35b34801561026457600080fd5b5061027f600480360381019061027a9190611122565b610c7f565b005b60006020528060005260406000206000915090508060000160009054906101000a900473ffffffffffffffffffffffffffffffffffffffff16908060010154908060020154908060030154908060040154908060050160009054906101000a900460ff16905086565b60015481565b60008060008084815260200190815260200160002090508060020154421061031c576000915050610330565b42816002015461032c9190611839565b9150505b919050565b600080600080600080600080600089815260200190815260200160002090508060000160009054906101000a900473ffffffffffffffffffffffffffffffffffffffff1681600101548260020154836003015484600401548560050160009054906101000a900460ff169650965096509650965096505091939550919395565b6060600060015467ffffffffffffffff8111156103fb577f4e487b7100000000000000000000000000000000000000000000000000000000600052604160045260246000fd5b6040519080825280602002602001820160405280156104295781602001602082028036833780820191505090505b5090506000600190505b600154811161050b57600073ffffffffffffffffffffffffffffffffffffffff1660008083815260200190815260200160002060000160009054906101000a900473ffffffffffffffffffffffffffffffffffffffff1673ffffffffffffffffffffffffffffffffffffffff16146104f85780826001836104b49190611839565b815181106104eb577f4e487b7100000000000000000000000000000000000000000000000000000000600052603260045260246000fd5b6020026020010181815250505b8080610503906118c7565b915050610433565b508091505090565b8060008082815260200190815260200160002060050160009054906101000a900460ff16610576576040517f08c379a000000000000000000000000000000000000000000000000000000000815260040161056d90611707565b60405180910390fd5b6000806000848152602001908152602001600020905080600201544210156105d3576040517f08c379a00000000000000000000000000000000000000000000000000000000081526004016105ca906116e7565b60405180910390fd5b806001015481600301541061061d576040517f08c379a000000000000000000000000000000000000000000000000000000000815260040161061490611627565b60405180910390fd5b60008160070160003373ffffffffffffffffffffffffffffffffffffffff1673ffffffffffffffffffffffffffffffffffffffff168152602001908152602001600020549050600081116106a6576040517f08c379a000000000000000000000000000000000000000000000000000000000815260040161069d90611647565b60405180910390fd5b60008260070160003373ffffffffffffffffffffffffffffffffffffffff1673ffffffffffffffffffffffffffffffffffffffff168152602001908152602001600020819055503373ffffffffffffffffffffffffffffffffffffffff166108fc829081150290604051600060405180830381858888f19350505050158015610733573d6000803e3d6000fd5b503373ffffffffffffffffffffffffffffffffffffffff16847f7a482fdeb6bc9a1376f597068a214a7a39472bb2eff1b8cad21ba04f49ddca1b8360405161077b9190611747565b60405180910390a350505050565b8060008082815260200190815260200160002060050160009054906101000a900460ff166107ec576040517f08c379a00000000000000000000000000000000000000000000000000000000081526004016107e390611707565b60405180910390fd5b600080600084815260200190815260200160002090508060020154421115610849576040517f08c379a000000000000000000000000000000000000000000000000000000000815260040161084090611727565b60405180910390fd5b8060040154341015610890576040517f08c379a000000000000000000000000000000000000000000000000000000000815260040161088790611687565b60405180910390fd5b348160030160008282546108a491906117e3565b92505081905550348160070160003373ffffffffffffffffffffffffffffffffffffffff1673ffffffffffffffffffffffffffffffffffffffff16815260200190815260200160002060008282546108fc91906117e3565b9250508190555080600601339080600181540180825580915050600190039060005260206000200160009091909190916101000a81548173ffffffffffffffffffffffffffffffffffffffff021916908373ffffffffffffffffffffffffffffffffffffffff1602179055508060010154816003015410610a67578060000160009054906101000a900473ffffffffffffffffffffffffffffffffffffffff1673ffffffffffffffffffffffffffffffffffffffff166108fc82600301549081150290604051600060405180830381858888f193505050501580156109e5573d6000803e3d6000fd5b508060000160009054906101000a900473ffffffffffffffffffffffffffffffffffffffff1673ffffffffffffffffffffffffffffffffffffffff16837ff71d24bd1c42802c0769fbc8bbd984f37eb9aa46f81e27c1d69982de54c36f758360030154604051610a559190611747565b60405180910390a3610a6683610e1c565b5b505050565b8060008082815260200190815260200160002060050160009054906101000a900460ff16610acf576040517f08c379a0000000000000000000000000000000000000000000000000000000008152600401610ac690611707565b60405180910390fd5b600080600084815260200190815260200160002090508060020154421015610b2c576040517f08c379a0000000000000000000000000000000000000000000000000000000008152600401610b23906116c7565b60405180910390fd5b60008160050160006101000a81548160ff0219169083151502179055508060010154816003015410610c43578060000160009054906101000a900473ffffffffffffffffffffffffffffffffffffffff1673ffffffffffffffffffffffffffffffffffffffff166108fc82600301549081150290604051600060405180830381858888f19350505050158015610bc6573d6000803e3d6000fd5b508060000160009054906101000a900473ffffffffffffffffffffffffffffffffffffffff1673ffffffffffffffffffffffffffffffffffffffff16837ff71d24bd1c42802c0769fbc8bbd984f37eb9aa46f81e27c1d69982de54c36f758360030154604051610c369190611747565b60405180910390a3610c4d565b610c4c83610ecc565b5b610c5683610e1c565b505050565b60008060008084815260200190815260200160002090508060030154915050919050565b60008211610cc2576040517f08c379a0000000000000000000000000000000000000000000000000000000008152600401610cb990611667565b60405180910390fd5b60008111610d05576040517f08c379a0000000000000000000000000000000000000000000000000000000008152600401610cfc906116a7565b60405180910390fd5b60016000815480929190610d18906118c7565b9190505550600080600060015481526020019081526020016000209050338160000160006101000a81548173ffffffffffffffffffffffffffffffffffffffff021916908373ffffffffffffffffffffffffffffffffffffffff1602179055508281600101819055508181600401819055506206978042610d9991906117e3565b816002018190555060018160050160006101000a81548160ff0219169083151502179055503373ffffffffffffffffffffffffffffffffffffffff166001547f55442c02be5890f739f14e50919c4273e4d80ff443ab02c8201150dfa631dc0185858560020154604051610e0f93929190611762565b60405180910390a3505050565b600080828152602001908152602001600020600080820160006101000a81549073ffffffffffffffffffffffffffffffffffffffff021916905560018201600090556002820160009055600382016000905560048201600090556005820160006101000a81549060ff0219169055600682016000610e9a91906110a6565b5050807f4323787dc7b9146e99da5553dee506c8d881e5da3d09774f8b421274287532be60405160405180910390a250565b6000806000838152602001908152602001600020905060005b81600601805490508110156110a1576000826006018281548110610f32577f4e487b7100000000000000000000000000000000000000000000000000000000600052603260045260246000fd5b9060005260206000200160009054906101000a900473ffffffffffffffffffffffffffffffffffffffff16905060008360070160008373ffffffffffffffffffffffffffffffffffffffff1673ffffffffffffffffffffffffffffffffffffffff168152602001908152602001600020549050600081111561108c5760008460070160008473ffffffffffffffffffffffffffffffffffffffff1673ffffffffffffffffffffffffffffffffffffffff168152602001908152602001600020819055508173ffffffffffffffffffffffffffffffffffffffff166108fc829081150290604051600060405180830381858888f1935050505015801561103b573d6000803e3d6000fd5b508173ffffffffffffffffffffffffffffffffffffffff16857f7a482fdeb6bc9a1376f597068a214a7a39472bb2eff1b8cad21ba04f49ddca1b836040516110839190611747565b60405180910390a35b50508080611099906118c7565b915050610ee5565b505050565b50805460008255906000526020600020908101906110c491906110c7565b50565b5b808211156110e05760008160009055506001016110c8565b5090565b6000813590506110f38161193f565b92915050565b60006020828403121561110b57600080fd5b6000611119848285016110e4565b91505092915050565b6000806040838503121561113557600080fd5b6000611143858286016110e4565b9250506020611154858286016110e4565b9150509250929050565b600061116a8383611525565b60208301905092915050565b61117f8161187f565b82525050565b61118e8161186d565b82525050565b600061119f826117a9565b6111a981856117c1565b93506111b483611799565b8060005b838110156111e55781516111cc888261115e565b97506111d7836117b4565b9250506001810190506111b8565b5085935050505092915050565b6111fb81611891565b82525050565b600061120e6029836117d2565b91507f476f616c20616d6f756e7420726561636865642c206e6f20726566756e64732060008301527f617661696c61626c6500000000000000000000000000000000000000000000006020830152604082019050919050565b6000611274601a836117d2565b91507f4e6f20636f6e747269627574696f6e7320746f20726566756e640000000000006000830152602082019050919050565b60006112b46022836117d2565b91507f476f616c20616d6f756e74206d7573742062652067726561746572207468616e60008301527f20300000000000000000000000000000000000000000000000000000000000006020830152604082019050919050565b600061131a602e836117d2565b91507f436f6e747269627574696f6e206973206c657373207468616e20746865206d6960008301527f6e696d756d2072657175697265640000000000000000000000000000000000006020830152604082019050919050565b6000611380602b836117d2565b91507f4d696e696d756d20636f6e747269627574696f6e206d7573742062652067726560008301527f61746572207468616e20300000000000000000000000000000000000000000006020830152604082019050919050565b60006113e66029836117d2565b91507f54686520706f737420686173206e6f742072656163686564206974732064656160008301527f646c696e652079657400000000000000000000000000000000000000000000006020830152604082019050919050565b600061144c6023836117d2565b91507f43616e6e6f7420636c61696d20726566756e64206265666f726520646561646c60008301527f696e6500000000000000000000000000000000000000000000000000000000006020830152604082019050919050565b60006114b2601d836117d2565b91507f5468697320706f7374206973206e6f206c6f6e676572206163746976650000006000830152602082019050919050565b60006114f26015836117d2565b91507f5468697320706f737420686173206578706972656400000000000000000000006000830152602082019050919050565b61152e816118bd565b82525050565b61153d816118bd565b82525050565b600060c0820190506115586000830189611176565b6115656020830188611534565b6115726040830187611534565b61157f6060830186611534565b61158c6080830185611534565b61159960a08301846111f2565b979650505050505050565b600060c0820190506115b96000830189611185565b6115c66020830188611534565b6115d36040830187611534565b6115e06060830186611534565b6115ed6080830185611534565b6115fa60a08301846111f2565b979650505050505050565b6000602082019050818103600083015261161f8184611194565b905092915050565b6000602082019050818103600083015261164081611201565b9050919050565b6000602082019050818103600083015261166081611267565b9050919050565b60006020820190508181036000830152611680816112a7565b9050919050565b600060208201905081810360008301526116a08161130d565b9050919050565b600060208201905081810360008301526116c081611373565b9050919050565b600060208201905081810360008301526116e0816113d9565b9050919050565b600060208201905081810360008301526117008161143f565b9050919050565b60006020820190508181036000830152611720816114a5565b9050919050565b60006020820190508181036000830152611740816114e5565b9050919050565b600060208201905061175c6000830184611534565b92915050565b60006060820190506117776000830186611534565b6117846020830185611534565b6117916040830184611534565b949350505050565b6000819050602082019050919050565b600081519050919050565b6000602082019050919050565b600082825260208201905092915050565b600082825260208201905092915050565b60006117ee826118bd565b91506117f9836118bd565b9250827fffffffffffffffffffffffffffffffffffffffffffffffffffffffffffffffff0382111561182e5761182d611910565b5b828201905092915050565b6000611844826118bd565b915061184f836118bd565b92508282101561186257611861611910565b5b828203905092915050565b60006118788261189d565b9050919050565b600061188a8261189d565b9050919050565b60008115159050919050565b600073ffffffffffffffffffffffffffffffffffffffff82169050919050565b6000819050919050565b60006118d2826118bd565b91507fffffffffffffffffffffffffffffffffffffffffffffffffffffffffffffffff82141561190557611904611910565b5b600182019050919050565b7f4e487b7100000000000000000000000000000000000000000000000000000000600052601160045260246000fd5b611948816118bd565b811461195357600080fd5b5056fea2646970667358221220d73ec85bdf4683c94e9a2c874efbbd5611b9271bd23987fb1f3625b4ecacddf764736f6c63430008000033",
  "immutableReferences": {},
  "source": "// SPDX-License-Identifier: MIT\r\npragma solidity ^0.8.0;\r\n\r\ncontract Crowd_Funding {\r\n\r\n    struct Post {\r\n        address payable creator;\r\n        uint256 goalAmount;\r\n        uint256 deadline;\r\n        uint256 collectedAmount;\r\n        uint256 minContribution;\r\n        bool active;\r\n        address[] contributors; // To track all contributors\r\n        mapping(address => uint256) contributions;\r\n    }\r\n\r\n    mapping(uint256 => Post) public posts;\r\n    uint256 public postCount;\r\n\r\n    event PostCreated(uint256 indexed postId, address indexed creator, uint256 goalAmount, uint256 minContribution, uint256 deadline);\r\n    event FundsCollected(uint256 indexed postId, address indexed creator, uint256 collectedAmount);\r\n    event RefundIssued(uint256 indexed postId, address indexed contributor, uint256 amount);\r\n    event PostRemoved(uint256 indexed postId);\r\n\r\n    modifier onlyActivePost(uint256 _postId) {\r\n        require(posts[_postId].active, \"This post is no longer active\");\r\n        _;\r\n    }\r\n\r\n    modifier onlyCreator(uint256 _postId) {\r\n        require(posts[_postId].creator == msg.sender, \"Only the creator can call this function\");\r\n        _;\r\n    }\r\n\r\n    function createPost(uint256 _goalAmount, uint256 _minContribution) external {\r\n        require(_goalAmount > 0, \"Goal amount must be greater than 0\");\r\n        require(_minContribution > 0, \"Minimum contribution must be greater than 0\");\r\n\r\n        postCount++;\r\n        Post storage newPost = posts[postCount];\r\n        newPost.creator = payable(msg.sender);\r\n        newPost.goalAmount = _goalAmount;\r\n        newPost.minContribution = _minContribution;\r\n        newPost.deadline = block.timestamp + 5 days;\r\n        newPost.active = true;\r\n\r\n        emit PostCreated(postCount, msg.sender, _goalAmount, _minContribution, newPost.deadline);\r\n    }\r\n\r\n    function fundPost(uint256 _postId) external payable onlyActivePost(_postId) {\r\n        Post storage post = posts[_postId];\r\n        require(block.timestamp <= post.deadline, \"This post has expired\");\r\n        require(msg.value >= post.minContribution, \"Contribution is less than the minimum required\");\r\n\r\n        post.collectedAmount += msg.value;\r\n        post.contributions[msg.sender] += msg.value;\r\n        post.contributors.push(msg.sender); // Track contributors\r\n\r\n        if (post.collectedAmount >= post.goalAmount) {\r\n            post.creator.transfer(post.collectedAmount);\r\n            emit FundsCollected(_postId, post.creator, post.collectedAmount);\r\n            _removePost(_postId);\r\n        }\r\n    }\r\n\r\n    function checkDeadline(uint256 _postId) external onlyActivePost(_postId) {\r\n        Post storage post = posts[_postId];\r\n        require(block.timestamp >= post.deadline, \"The post has not reached its deadline yet\");\r\n\r\n        post.active = false;\r\n\r\n        if (post.collectedAmount >= post.goalAmount) {\r\n            post.creator.transfer(post.collectedAmount);\r\n            emit FundsCollected(_postId, post.creator, post.collectedAmount);\r\n        } else {\r\n            _refundAllContributors(_postId);\r\n        }\r\n        _removePost(_postId);\r\n    }\r\n\r\n    function _refundAllContributors(uint256 _postId) internal {\r\n        Post storage post = posts[_postId];\r\n        for (uint256 i = 0; i < post.contributors.length; i++) {\r\n            address contributor = post.contributors[i];\r\n            uint256 contribution = post.contributions[contributor];\r\n            if (contribution > 0) {\r\n                post.contributions[contributor] = 0;\r\n                payable(contributor).transfer(contribution);\r\n                emit RefundIssued(_postId, contributor, contribution);\r\n            }\r\n        }\r\n    }\r\n\r\n    function claimRefund(uint256 _postId) external onlyActivePost(_postId) {\r\n        Post storage post = posts[_postId];\r\n        require(block.timestamp >= post.deadline, \"Cannot claim refund before deadline\");\r\n        require(post.collectedAmount < post.goalAmount, \"Goal amount reached, no refunds available\");\r\n\r\n        uint256 contribution = post.contributions[msg.sender];\r\n        require(contribution > 0, \"No contributions to refund\");\r\n\r\n        post.contributions[msg.sender] = 0;\r\n        payable(msg.sender).transfer(contribution);\r\n\r\n        emit RefundIssued(_postId, msg.sender, contribution);\r\n    }\r\n\r\n    function _removePost(uint256 _postId) internal {\r\n        delete posts[_postId];\r\n        emit PostRemoved(_postId);\r\n    }\r\n\r\n    // Function to check the remaining time for a post\r\n    function getRemainingTime(uint256 _postId) external view returns (uint256) {\r\n        Post storage post = posts[_postId];\r\n        if (block.timestamp >= post.deadline) {\r\n            return 0;\r\n        } else {\r\n            return post.deadline - block.timestamp;\r\n        }\r\n    }\r\n\r\n    // Function to check the collected funds for a post\r\n    function getCollectedFunds(uint256 _postId) external view returns (uint256) {\r\n        Post storage post = posts[_postId];\r\n        return post.collectedAmount;\r\n    }\r\n\r\n    // Function to get details of a post\r\n    function getPost(uint256 _postId) external view returns (address creator, uint256 goalAmount, uint256 deadline, uint256 collectedAmount, uint256 minContribution, bool active) {\r\n        Post storage post = posts[_postId];\r\n        return (post.creator, post.goalAmount, post.deadline, post.collectedAmount, post.minContribution, post.active);\r\n    }\r\n\r\n    function getPostIds() external view returns (uint256[] memory) {\r\n    uint256[] memory postIds = new uint256[](postCount);\r\n    for (uint256 i = 1; i <= postCount; i++) {\r\n        if (posts[i].creator != address(0)) {\r\n            postIds[i - 1] = i;\r\n        }\r\n    }\r\n    return postIds;\r\n    }\r\n}\r\n",
  "sourcePath": "C:\\Users\\Aly\\Desktop\\Crowdfunding\\crowdfunding\\contracts\\Crowd_Funding.sol",
  "compiler": {
    "name": "solc",
    "version": "0.8.0+commit.c7dfd78e.Emscripten.clang"
  },
  "schemaVersion": "3.4.16",
  "updatedAt": "2024-08-17T21:10:01.415Z",
  "networkType": "ethereum",
  "devdoc": {
    "kind": "dev",
    "methods": {},
    "version": 1
  },
  "userdoc": {
    "kind": "user",
    "methods": {},
    "version": 1
  }
}